{
  "contractName": "AtomicSwapETH",
  "abi": [
    {
      "inputs": [
        {
          "internalType": "address payable",
          "name": "_target",
          "type": "address"
        },
        {
          "internalType": "address payable",
          "name": "_backup",
          "type": "address"
        },
        {
          "internalType": "address payable",
          "name": "_platform",
          "type": "address"
        },
        {
          "internalType": "uint256",
          "name": "_feeAmount",
          "type": "uint256"
        },
        {
          "internalType": "uint256",
          "name": "_amount",
          "type": "uint256"
        },
        {
          "internalType": "uint256",
          "name": "_timeLock",
          "type": "uint256"
        },
        {
          "internalType": "uint256",
          "name": "_hashedSecret",
          "type": "uint256"
        }
      ],
      "payable": false,
      "stateMutability": "nonpayable",
      "type": "constructor"
    },
    {
      "payable": true,
      "stateMutability": "payable",
      "type": "fallback"
    },
    {
      "constant": true,
      "inputs": [],
      "name": "amount",
      "outputs": [
        {
          "internalType": "uint256",
          "name": "",
          "type": "uint256"
        }
      ],
      "payable": false,
      "stateMutability": "view",
      "type": "function"
    },
    {
      "constant": true,
      "inputs": [],
      "name": "backup",
      "outputs": [
        {
          "internalType": "address payable",
          "name": "",
          "type": "address"
        }
      ],
      "payable": false,
      "stateMutability": "view",
      "type": "function"
    },
    {
      "constant": true,
      "inputs": [],
      "name": "feeAmount",
      "outputs": [
        {
          "internalType": "uint256",
          "name": "",
          "type": "uint256"
        }
      ],
      "payable": false,
      "stateMutability": "view",
      "type": "function"
    },
    {
      "constant": true,
      "inputs": [],
      "name": "hashedSecret",
      "outputs": [
        {
          "internalType": "uint256",
          "name": "",
          "type": "uint256"
        }
      ],
      "payable": false,
      "stateMutability": "view",
      "type": "function"
    },
    {
      "constant": true,
      "inputs": [],
      "name": "platform",
      "outputs": [
        {
          "internalType": "address payable",
          "name": "",
          "type": "address"
        }
      ],
      "payable": false,
      "stateMutability": "view",
      "type": "function"
    },
    {
      "constant": true,
      "inputs": [
        {
          "internalType": "uint256",
          "name": "",
          "type": "uint256"
        }
      ],
      "name": "rawSecret",
      "outputs": [
        {
          "internalType": "uint256",
          "name": "",
          "type": "uint256"
        }
      ],
      "payable": false,
      "stateMutability": "view",
      "type": "function"
    },
    {
      "constant": true,
      "inputs": [],
      "name": "refunded",
      "outputs": [
        {
          "internalType": "bool",
          "name": "",
          "type": "bool"
        }
      ],
      "payable": false,
      "stateMutability": "view",
      "type": "function"
    },
    {
      "constant": true,
      "inputs": [],
      "name": "target",
      "outputs": [
        {
          "internalType": "address payable",
          "name": "",
          "type": "address"
        }
      ],
      "payable": false,
      "stateMutability": "view",
      "type": "function"
    },
    {
      "constant": true,
      "inputs": [],
      "name": "timeLock",
      "outputs": [
        {
          "internalType": "uint256",
          "name": "",
          "type": "uint256"
        }
      ],
      "payable": false,
      "stateMutability": "view",
      "type": "function"
    },
    {
      "constant": true,
      "inputs": [],
      "name": "withdrawn",
      "outputs": [
        {
          "internalType": "bool",
          "name": "",
          "type": "bool"
        }
      ],
      "payable": false,
      "stateMutability": "view",
      "type": "function"
    },
    {
      "constant": true,
      "inputs": [],
      "name": "contractBalance",
      "outputs": [
        {
          "internalType": "uint256",
          "name": "",
          "type": "uint256"
        }
      ],
      "payable": false,
      "stateMutability": "view",
      "type": "function"
    },
    {
      "constant": false,
      "inputs": [
        {
          "internalType": "uint256[2]",
          "name": "_rawSecret",
          "type": "uint256[2]"
        }
      ],
      "name": "withdraw",
      "outputs": [
        {
          "internalType": "bool",
          "name": "",
          "type": "bool"
        }
      ],
      "payable": false,
      "stateMutability": "nonpayable",
      "type": "function"
    },
    {
      "constant": false,
      "inputs": [],
      "name": "refund",
      "outputs": [
        {
          "internalType": "bool",
          "name": "",
          "type": "bool"
        }
      ],
      "payable": false,
      "stateMutability": "nonpayable",
      "type": "function"
    }
  ],
  "bytecode": "0x608060405234801561001057600080fd5b50604051610d6f380380610d6f833981810160405260e081101561003357600080fd5b8101908080519060200190929190805190602001909291908051906020019092919080519060200190929190805190602001909291908051906020019092919080519060200190929190505050814281116100f6576040517f08c379a000000000000000000000000000000000000000000000000000000000815260040180806020018281038252601d8152602001807f54696d656c6f636b206973206e6f7420696e207468652066757475726500000081525060200191505060405180910390fd5b876000806101000a81548173ffffffffffffffffffffffffffffffffffffffff021916908373ffffffffffffffffffffffffffffffffffffffff16021790555086600160006101000a81548173ffffffffffffffffffffffffffffffffffffffff021916908373ffffffffffffffffffffffffffffffffffffffff16021790555085600260006101000a81548173ffffffffffffffffffffffffffffffffffffffff021916908373ffffffffffffffffffffffffffffffffffffffff160217905550846003819055508360048190555082600881905550816005819055505050505050505050610b84806101eb6000396000f3fe6080604052600436106100c25760003560e01c80636f98c7e61161007f578063c80ec52211610059578063c80ec522146102cb578063d085835a146102fa578063d4b8399214610325578063df5f07b91461037c576100c2565b80636f98c7e6146102265780638b7afe2e14610275578063aa8c217c146102a0576100c2565b806312f53950146100c45780634bde38c8146100f357806350a9e1271461014a5780635752c910146101a1578063590e1ae3146101cc57806369e15404146101fb575b005b3480156100d057600080fd5b506100d9610406565b604051808215151515815260200191505060405180910390f35b3480156100ff57600080fd5b50610108610419565b604051808273ffffffffffffffffffffffffffffffffffffffff1673ffffffffffffffffffffffffffffffffffffffff16815260200191505060405180910390f35b34801561015657600080fd5b5061015f61043f565b604051808273ffffffffffffffffffffffffffffffffffffffff1673ffffffffffffffffffffffffffffffffffffffff16815260200191505060405180910390f35b3480156101ad57600080fd5b506101b6610465565b6040518082815260200191505060405180910390f35b3480156101d857600080fd5b506101e161046b565b604051808215151515815260200191505060405180910390f35b34801561020757600080fd5b506102106106e4565b6040518082815260200191505060405180910390f35b34801561023257600080fd5b5061025f6004803603602081101561024957600080fd5b81019080803590602001909291905050506106ea565b6040518082815260200191505060405180910390f35b34801561028157600080fd5b5061028a610702565b6040518082815260200191505060405180910390f35b3480156102ac57600080fd5b506102b561070a565b6040518082815260200191505060405180910390f35b3480156102d757600080fd5b506102e0610710565b604051808215151515815260200191505060405180910390f35b34801561030657600080fd5b5061030f610723565b6040518082815260200191505060405180910390f35b34801561033157600080fd5b5061033a610729565b604051808273ffffffffffffffffffffffffffffffffffffffff1673ffffffffffffffffffffffffffffffffffffffff16815260200191505060405180910390f35b34801561038857600080fd5b506103ec6004803603604081101561039f57600080fd5b8101908080604001906002806020026040519081016040528092919082600260200280828437600081840152601f19601f820116905080830192505050505050919291929050505061074e565b604051808215151515815260200191505060405180910390f35b600960019054906101000a900460ff1681565b600260009054906101000a900473ffffffffffffffffffffffffffffffffffffffff1681565b600160009054906101000a900473ffffffffffffffffffffffffffffffffffffffff1681565b60055481565b6000600454610478610702565b10156104cf576040517f08c379a0000000000000000000000000000000000000000000000000000000008152600401808060200182810382526021815260200180610b2f6021913960400191505060405180910390fd5b60001515600960019054906101000a900460ff16151514610558576040517f08c379a00000000000000000000000000000000000000000000000000000000081526004018080602001828103825260198152602001807f436f6e747261637420616c726561647920726566756e6465640000000000000081525060200191505060405180910390fd5b60001515600960009054906101000a900460ff161515146105e1576040517f08c379a000000000000000000000000000000000000000000000000000000000815260040180806020018281038252601b8152602001807f436f6e747261637420616c72656164792077697468647261776564000000000081525060200191505060405180910390fd5b426008541115610659576040517f08c379a000000000000000000000000000000000000000000000000000000000815260040180806020018281038252601c8152602001807f546f6f206561726c7920746f2063616c6c2074686520726566756e640000000081525060200191505060405180910390fd5b6001600960016101000a81548160ff021916908315150217905550600160009054906101000a900473ffffffffffffffffffffffffffffffffffffffff1673ffffffffffffffffffffffffffffffffffffffff166108fc479081150290604051600060405180830381858888f193505050501580156106dc573d6000803e3d6000fd5b506001905090565b60035481565b600681600281106106f757fe5b016000915090505481565b600047905090565b60045481565b600960009054906101000a900460ff1681565b60085481565b6000809054906101000a900473ffffffffffffffffffffffffffffffffffffffff1681565b600060045461075b610702565b10156107b2576040517f08c379a0000000000000000000000000000000000000000000000000000000008152600401808060200182810382526021815260200180610b2f6021913960400191505060405180910390fd5b816002816000600281106107c257fe5b6020020151826001600281106107d457fe5b602002015160405160200180838152602001828152602001925050506040516020818303038152906040526040518082805190602001908083835b60208310610832578051825260208201915060208101905060208303925061080f565b6001836020036101000a038019825116818451168082178552505050505050905001915050602060405180830381855afa158015610874573d6000803e3d6000fd5b5050506040513d602081101561088957600080fd5b810190808051906020019092919050505060001c60055414610913576040517f08c379a000000000000000000000000000000000000000000000000000000000815260040180806020018281038252601b8152602001807f536563726574206e6f74206d617463686573207468652068617368000000000081525060200191505060405180910390fd5b60001515600960009054906101000a900460ff1615151461099c576040517f08c379a000000000000000000000000000000000000000000000000000000000815260040180806020018281038252601b8152602001807f436f6e747261637420616c72656164792077697468647261776564000000000081525060200191505060405180910390fd5b8260069060026109ad929190610ac9565b506001600960006101000a81548160ff02191690831515021790555060006003546004546109d9610702565b030190506000809054906101000a900473ffffffffffffffffffffffffffffffffffffffff1673ffffffffffffffffffffffffffffffffffffffff166108fc600354600454039081150290604051600060405180830381858888f19350505050158015610a4a573d6000803e3d6000fd5b506000811115610abe57600260009054906101000a900473ffffffffffffffffffffffffffffffffffffffff1673ffffffffffffffffffffffffffffffffffffffff166108fc829081150290604051600060405180830381858888f19350505050158015610abc573d6000803e3d6000fd5b505b600192505050919050565b8260028101928215610af8579160200282015b82811115610af7578251825591602001919060010190610adc565b5b509050610b059190610b09565b5090565b610b2b91905b80821115610b27576000816000905550600101610b0f565b5090565b9056fe42616c616e6365206973206c657373207468616e20746865207265717569726564a265627a7a72315820d00e4057a4f7e33bfb6eb65a6d858543d12553f4674ab19141af49737370c35764736f6c63430005100032",
  "source": "pragma solidity ^0.5.4;\n\nimport './utils/SafeMath.sol';\n\n/**\n * @title Hashed Timelock Contracts (HTLCs) on Ethereum ETH.\n *\n * This contract provides a way to create and keep HTLC contract ETH.\n */\ncontract AtomicSwapETH {\n    using SafeMath for uint256;\n\n    address payable public target;\n    address payable public backup;\n    address payable public platform;\n\n    uint public feeAmount;\n    uint public amount;\n    uint public hashedSecret;\n    uint[2] public rawSecret;\n    uint public timeLock;\n\n    bool public withdrawn;\n    bool public refunded;\n\n    function contractBalance() view public returns(uint) {\n        return address(this).balance;\n    }\n\n    modifier fundsSent() {\n        require(contractBalance() >= amount, \"Balance is less than the required\");\n        _;\n    }\n\n    modifier futureTimeLock(uint _time) {\n        require(_time > now, \"Timelock is not in the future\");\n        _;\n    }\n\n    modifier secretHashMatches(uint[2] memory _rawSecret) {\n        require(hashedSecret == uint(sha256(abi.encodePacked(_rawSecret[0], _rawSecret[1]))), \"Secret not matches the hash\");\n        _;\n    }\n\n    modifier withdrawable() {\n        require(withdrawn == false, \"Contract already withdrawed\");\n        _;\n    }\n\n    modifier refundable() {\n        require(refunded == false, \"Contract already refunded\");\n        require(withdrawn == false, \"Contract already withdrawed\");\n        require(timeLock <= now, \"Too early to call the refund\");\n        _;\n    }\n\n    /**\n     * @dev Factory sets up a new hash time lock contract and\n     * providing the receiver lock terms.\n     *\n     * @param _target Receiver of the ETH in case of successful swap.\n     * @param _backup Backup address for sending the ETH in case of\n     *                  unsuccessful swap\n     * @param _target Platform address for receiving fee.\n     * @param _amount   Swap amount in Wei\n     * @param _timeLock UNIX epoch seconds time that the lock expires at.\n     *                  Refunds can be made after this time.\n     * @param _hashedSecret A uint(sha256(secret)) hashedSecret.\n     */\n    constructor(\n        address payable _target,\n        address payable _backup,\n        address payable _platform,\n        uint _feeAmount,\n        uint _amount,\n        uint _timeLock,\n        uint _hashedSecret\n    )\n    public\n    futureTimeLock(_timeLock)\n    {\n        target = _target;\n        backup = _backup;\n        platform = _platform;\n        feeAmount = _feeAmount;\n\n        amount = _amount;\n        timeLock = _timeLock;\n        hashedSecret = _hashedSecret;\n    }\n\n    /**\n     * @dev Called when user sends coins to the address.\n    */\n    function () external payable {}\n\n    /**\n     * @dev Called by the receiver once they know the rawSecret of the hashedSecret.\n     * This will transfer the locked funds to their address.\n     *\n     * @param _rawSecret uint(sha256(_rawSecret)) should equal the contract hashedSecret.\n     * @return bool true on success\n     */\n    function withdraw(uint[2] memory _rawSecret)\n    public\n    fundsSent\n    secretHashMatches(_rawSecret)\n    withdrawable\n    returns (bool)\n    {\n        rawSecret = _rawSecret;\n        withdrawn = true;\n\n        // Calculate the platform fee before the withdraw\n        uint platformFee = contractBalance() - amount + feeAmount;\n\n        target.transfer(amount - feeAmount);\n\n        if (platformFee > 0) {\n            platform.transfer(platformFee);\n        }\n\n        return true;\n    }\n\n    /**\n     * @dev Called by the sender if there was no withdraw AND the time lock has\n     * expired. This will refund the contract amount.\n     *\n     * @return bool true on success\n     */\n    function refund()\n    external\n    fundsSent\n    refundable\n    returns (bool)\n    {\n        refunded = true;\n        backup.transfer(address(this).balance);\n\n        return true;\n    }\n}\n",
  "sourcePath": "/home/pavlovdog/Work/TonAtomicSwapProposal/src/ethereum-contracts/contracts/AtomicSwapETH.sol",
  "compiler": {
    "name": "solc",
    "version": "0.5.16+commit.9c3226ce.Emscripten.clang"
  },
  "schemaVersion": "3.2.5",
  "updatedAt": "2020-09-19T16:10:59.534Z",
  "networkType": "ethereum",
  "devdoc": {
    "methods": {
      "constructor": {
        "details": "Factory sets up a new hash time lock contract and providing the receiver lock terms.",
        "params": {
          "_amount": "Swap amount in Wei",
          "_backup": "Backup address for sending the ETH in case of                 unsuccessful swap",
          "_hashedSecret": "A uint(sha256(secret)) hashedSecret.",
          "_target": "Platform address for receiving fee.",
          "_timeLock": "UNIX epoch seconds time that the lock expires at.                 Refunds can be made after this time."
        }
      },
      "refund()": {
        "details": "Called by the sender if there was no withdraw AND the time lock has expired. This will refund the contract amount.",
        "return": "bool true on success"
      },
      "withdraw(uint256[2])": {
        "details": "Called by the receiver once they know the rawSecret of the hashedSecret. This will transfer the locked funds to their address.",
        "params": {
          "_rawSecret": "uint(sha256(_rawSecret)) should equal the contract hashedSecret."
        },
        "return": "bool true on success"
      }
    },
    "title": "Hashed Timelock Contracts (HTLCs) on Ethereum ETH. * This contract provides a way to create and keep HTLC contract ETH."
  },
  "userdoc": {
    "methods": {}
  }
}