{
  "contractName": "AtomicSwapERC20",
  "abi": [
    {
      "inputs": [
        {
          "internalType": "address",
          "name": "_target",
          "type": "address"
        },
        {
          "internalType": "address",
          "name": "_backup",
          "type": "address"
        },
        {
          "internalType": "address",
          "name": "_platform",
          "type": "address"
        },
        {
          "internalType": "address",
          "name": "_token",
          "type": "address"
        },
        {
          "internalType": "uint256",
          "name": "_feeAmount",
          "type": "uint256"
        },
        {
          "internalType": "uint256",
          "name": "_amount",
          "type": "uint256"
        },
        {
          "internalType": "uint256",
          "name": "_timeLock",
          "type": "uint256"
        },
        {
          "internalType": "uint256",
          "name": "_hashedSecret",
          "type": "uint256"
        }
      ],
      "payable": false,
      "stateMutability": "nonpayable",
      "type": "constructor"
    },
    {
      "constant": true,
      "inputs": [],
      "name": "amount",
      "outputs": [
        {
          "internalType": "uint256",
          "name": "",
          "type": "uint256"
        }
      ],
      "payable": false,
      "stateMutability": "view",
      "type": "function"
    },
    {
      "constant": true,
      "inputs": [],
      "name": "backup",
      "outputs": [
        {
          "internalType": "address",
          "name": "",
          "type": "address"
        }
      ],
      "payable": false,
      "stateMutability": "view",
      "type": "function"
    },
    {
      "constant": true,
      "inputs": [],
      "name": "feeAmount",
      "outputs": [
        {
          "internalType": "uint256",
          "name": "",
          "type": "uint256"
        }
      ],
      "payable": false,
      "stateMutability": "view",
      "type": "function"
    },
    {
      "constant": true,
      "inputs": [],
      "name": "hashedSecret",
      "outputs": [
        {
          "internalType": "uint256",
          "name": "",
          "type": "uint256"
        }
      ],
      "payable": false,
      "stateMutability": "view",
      "type": "function"
    },
    {
      "constant": true,
      "inputs": [],
      "name": "platform",
      "outputs": [
        {
          "internalType": "address",
          "name": "",
          "type": "address"
        }
      ],
      "payable": false,
      "stateMutability": "view",
      "type": "function"
    },
    {
      "constant": true,
      "inputs": [
        {
          "internalType": "uint256",
          "name": "",
          "type": "uint256"
        }
      ],
      "name": "rawSecret",
      "outputs": [
        {
          "internalType": "uint256",
          "name": "",
          "type": "uint256"
        }
      ],
      "payable": false,
      "stateMutability": "view",
      "type": "function"
    },
    {
      "constant": true,
      "inputs": [],
      "name": "refunded",
      "outputs": [
        {
          "internalType": "bool",
          "name": "",
          "type": "bool"
        }
      ],
      "payable": false,
      "stateMutability": "view",
      "type": "function"
    },
    {
      "constant": true,
      "inputs": [],
      "name": "target",
      "outputs": [
        {
          "internalType": "address",
          "name": "",
          "type": "address"
        }
      ],
      "payable": false,
      "stateMutability": "view",
      "type": "function"
    },
    {
      "constant": true,
      "inputs": [],
      "name": "timeLock",
      "outputs": [
        {
          "internalType": "uint256",
          "name": "",
          "type": "uint256"
        }
      ],
      "payable": false,
      "stateMutability": "view",
      "type": "function"
    },
    {
      "constant": true,
      "inputs": [],
      "name": "token",
      "outputs": [
        {
          "internalType": "address",
          "name": "",
          "type": "address"
        }
      ],
      "payable": false,
      "stateMutability": "view",
      "type": "function"
    },
    {
      "constant": true,
      "inputs": [],
      "name": "withdrawn",
      "outputs": [
        {
          "internalType": "bool",
          "name": "",
          "type": "bool"
        }
      ],
      "payable": false,
      "stateMutability": "view",
      "type": "function"
    },
    {
      "constant": true,
      "inputs": [],
      "name": "contractBalance",
      "outputs": [
        {
          "internalType": "uint256",
          "name": "",
          "type": "uint256"
        }
      ],
      "payable": false,
      "stateMutability": "view",
      "type": "function"
    },
    {
      "constant": false,
      "inputs": [
        {
          "internalType": "uint256[2]",
          "name": "_rawSecret",
          "type": "uint256[2]"
        }
      ],
      "name": "withdraw",
      "outputs": [
        {
          "internalType": "bool",
          "name": "",
          "type": "bool"
        }
      ],
      "payable": false,
      "stateMutability": "nonpayable",
      "type": "function"
    },
    {
      "constant": false,
      "inputs": [],
      "name": "refund",
      "outputs": [
        {
          "internalType": "bool",
          "name": "",
          "type": "bool"
        }
      ],
      "payable": false,
      "stateMutability": "nonpayable",
      "type": "function"
    }
  ],
  "bytecode": "0x608060405234801561001057600080fd5b50604051611015380380611015833981810160405261010081101561003457600080fd5b81019080805190602001909291908051906020019092919080519060200190929190805190602001909291908051906020019092919080519060200190929190805190602001909291908051906020019092919050505081428111610101576040517f08c379a000000000000000000000000000000000000000000000000000000000815260040180806020018281038252601d8152602001807f54696d656c6f636b206973206e6f7420696e207468652066757475726500000081525060200191505060405180910390fd5b886000806101000a81548173ffffffffffffffffffffffffffffffffffffffff021916908373ffffffffffffffffffffffffffffffffffffffff16021790555087600160006101000a81548173ffffffffffffffffffffffffffffffffffffffff021916908373ffffffffffffffffffffffffffffffffffffffff16021790555085600360006101000a81548173ffffffffffffffffffffffffffffffffffffffff021916908373ffffffffffffffffffffffffffffffffffffffff16021790555086600260006101000a81548173ffffffffffffffffffffffffffffffffffffffff021916908373ffffffffffffffffffffffffffffffffffffffff16021790555084600481905550836005819055508260098190555081600681905550505050505050505050610ddd806102386000396000f3fe608060405234801561001057600080fd5b50600436106100ea5760003560e01c80638b7afe2e1161008c578063d085835a11610066578063d085835a146102a3578063d4b83992146102c1578063df5f07b91461030b578063fc0c546a14610388576100ea565b80638b7afe2e14610245578063aa8c217c14610263578063c80ec52214610281576100ea565b80635752c910116100c85780635752c910146101a5578063590e1ae3146101c357806369e15404146101e55780636f98c7e614610203576100ea565b806312f53950146100ef5780634bde38c81461011157806350a9e1271461015b575b600080fd5b6100f76103d2565b604051808215151515815260200191505060405180910390f35b6101196103e5565b604051808273ffffffffffffffffffffffffffffffffffffffff1673ffffffffffffffffffffffffffffffffffffffff16815260200191505060405180910390f35b61016361040b565b604051808273ffffffffffffffffffffffffffffffffffffffff1673ffffffffffffffffffffffffffffffffffffffff16815260200191505060405180910390f35b6101ad610431565b6040518082815260200191505060405180910390f35b6101cb610437565b604051808215151515815260200191505060405180910390f35b6101ed61074e565b6040518082815260200191505060405180910390f35b61022f6004803603602081101561021957600080fd5b8101908080359060200190929190505050610754565b6040518082815260200191505060405180910390f35b61024d61076c565b6040518082815260200191505060405180910390f35b61026b61084d565b6040518082815260200191505060405180910390f35b610289610853565b604051808215151515815260200191505060405180910390f35b6102ab610866565b6040518082815260200191505060405180910390f35b6102c961086c565b604051808273ffffffffffffffffffffffffffffffffffffffff1673ffffffffffffffffffffffffffffffffffffffff16815260200191505060405180910390f35b61036e6004803603604081101561032157600080fd5b8101908080604001906002806020026040519081016040528092919082600260200280828437600081840152601f19601f8201169050808301925050505050509192919290505050610891565b604051808215151515815260200191505060405180910390f35b610390610d1d565b604051808273ffffffffffffffffffffffffffffffffffffffff1673ffffffffffffffffffffffffffffffffffffffff16815260200191505060405180910390f35b600a60019054906101000a900460ff1681565b600260009054906101000a900473ffffffffffffffffffffffffffffffffffffffff1681565b600160009054906101000a900473ffffffffffffffffffffffffffffffffffffffff1681565b60065481565b600060055461044461076c565b10156104b8576040517f08c379a00000000000000000000000000000000000000000000000000000000081526004018080602001828103825260158152602001807f42616c616e6365206973206e6f7420656e6f756768000000000000000000000081525060200191505060405180910390fd5b60001515600a60019054906101000a900460ff16151514610541576040517f08c379a00000000000000000000000000000000000000000000000000000000081526004018080602001828103825260198152602001807f436f6e747261637420616c726561647920726566756e6465640000000000000081525060200191505060405180910390fd5b60001515600a60009054906101000a900460ff161515146105ca576040517f08c379a000000000000000000000000000000000000000000000000000000000815260040180806020018281038252601b8152602001807f436f6e747261637420616c72656164792077697468647261776564000000000081525060200191505060405180910390fd5b426009541115610642576040517f08c379a000000000000000000000000000000000000000000000000000000000815260040180806020018281038252601c8152602001807f546f6f206561726c7920746f2063616c6c2074686520726566756e640000000081525060200191505060405180910390fd5b6001600a60016101000a81548160ff021916908315150217905550600360009054906101000a900473ffffffffffffffffffffffffffffffffffffffff1673ffffffffffffffffffffffffffffffffffffffff1663a9059cbb600160009054906101000a900473ffffffffffffffffffffffffffffffffffffffff166106c661076c565b6040518363ffffffff1660e01b8152600401808373ffffffffffffffffffffffffffffffffffffffff1673ffffffffffffffffffffffffffffffffffffffff16815260200182815260200192505050600060405180830381600087803b15801561072f57600080fd5b505af1158015610743573d6000803e3d6000fd5b505050506001905090565b60045481565b6007816002811061076157fe5b016000915090505481565b6000600360009054906101000a900473ffffffffffffffffffffffffffffffffffffffff1673ffffffffffffffffffffffffffffffffffffffff166370a08231306040518263ffffffff1660e01b8152600401808273ffffffffffffffffffffffffffffffffffffffff1673ffffffffffffffffffffffffffffffffffffffff16815260200191505060206040518083038186803b15801561080d57600080fd5b505afa158015610821573d6000803e3d6000fd5b505050506040513d602081101561083757600080fd5b8101908080519060200190929190505050905090565b60055481565b600a60009054906101000a900460ff1681565b60095481565b6000809054906101000a900473ffffffffffffffffffffffffffffffffffffffff1681565b600060055461089e61076c565b1015610912576040517f08c379a00000000000000000000000000000000000000000000000000000000081526004018080602001828103825260158152602001807f42616c616e6365206973206e6f7420656e6f756768000000000000000000000081525060200191505060405180910390fd5b8160028160006002811061092257fe5b60200201518260016002811061093457fe5b602002015160405160200180838152602001828152602001925050506040516020818303038152906040526040518082805190602001908083835b60208310610992578051825260208201915060208101905060208303925061096f565b6001836020036101000a038019825116818451168082178552505050505050905001915050602060405180830381855afa1580156109d4573d6000803e3d6000fd5b5050506040513d60208110156109e957600080fd5b810190808051906020019092919050505060001c60065414610a73576040517f08c379a000000000000000000000000000000000000000000000000000000000815260040180806020018281038252601b8152602001807f536563726574206e6f74206d617463686573207468652068617368000000000081525060200191505060405180910390fd5b60001515600a60009054906101000a900460ff16151514610afc576040517f08c379a000000000000000000000000000000000000000000000000000000000815260040180806020018281038252601b8152602001807f436f6e747261637420616c72656164792077697468647261776564000000000081525060200191505060405180910390fd5b826007906002610b0d929190610d43565b506001600a60006101000a81548160ff0219169083151502179055506000600454600554610b3961076c565b03019050600360009054906101000a900473ffffffffffffffffffffffffffffffffffffffff1673ffffffffffffffffffffffffffffffffffffffff1663a9059cbb6000809054906101000a900473ffffffffffffffffffffffffffffffffffffffff16600454600554036040518363ffffffff1660e01b8152600401808373ffffffffffffffffffffffffffffffffffffffff1673ffffffffffffffffffffffffffffffffffffffff16815260200182815260200192505050600060405180830381600087803b158015610c0d57600080fd5b505af1158015610c21573d6000803e3d6000fd5b505050506000811115610d1257600360009054906101000a900473ffffffffffffffffffffffffffffffffffffffff1673ffffffffffffffffffffffffffffffffffffffff1663a9059cbb600260009054906101000a900473ffffffffffffffffffffffffffffffffffffffff16836040518363ffffffff1660e01b8152600401808373ffffffffffffffffffffffffffffffffffffffff1673ffffffffffffffffffffffffffffffffffffffff16815260200182815260200192505050600060405180830381600087803b158015610cf957600080fd5b505af1158015610d0d573d6000803e3d6000fd5b505050505b600192505050919050565b600360009054906101000a900473ffffffffffffffffffffffffffffffffffffffff1681565b8260028101928215610d72579160200282015b82811115610d71578251825591602001919060010190610d56565b5b509050610d7f9190610d83565b5090565b610da591905b80821115610da1576000816000905550600101610d89565b5090565b9056fea265627a7a72315820ec2675be590e1093d790d1a62a6031e66192fe4deacfb2af9839ae74e0ff144564736f6c63430005100032",
  "source": "pragma solidity ^0.5.4;\n\nimport './utils/SafeMath.sol';\nimport './interfaces/IERC20.sol';\n\n/**\n * @title Hashed Timelock Contracts for using with ERC20.\n */\ncontract AtomicSwapERC20 {\n    using SafeMath for uint256;\n\n    address public target;\n    address public backup;\n    address public platform;\n\n    address public token;\n\n    uint public feeAmount;\n    uint public amount;\n    uint public hashedSecret;\n    uint[2] public rawSecret;\n    uint public timeLock;\n\n    bool public withdrawn;\n    bool public refunded;\n\n    function contractBalance() view public returns(uint) {\n        return IERC20(token).balanceOf(address(this));\n    }\n\n    modifier fundsSent() {\n        require(contractBalance() >= amount, \"Balance is not enough\");\n        _;\n    }\n\n    modifier futureTimeLock(uint _time) {\n        require(_time > now, \"Timelock is not in the future\");\n        _;\n    }\n\n    modifier secretHashMatches(uint[2] memory _rawSecret) {\n        require(hashedSecret == uint(sha256(abi.encodePacked(_rawSecret[0], _rawSecret[1]))), \"Secret not matches the hash\");\n        _;\n    }\n\n    modifier withdrawable() {\n        require(withdrawn == false, \"Contract already withdrawed\");\n        _;\n    }\n\n    modifier refundable() {\n        require(refunded == false, \"Contract already refunded\");\n        require(withdrawn == false, \"Contract already withdrawed\");\n        require(timeLock <= now, \"Too early to call the refund\");\n        _;\n    }\n\n    /**\n     * @dev Factory sets up a new hash time lock contract and\n     * providing the receiver lock terms.\n     *\n     * @param _target Receiver of the token in case of successful swap.\n     * @param _backup Backup address for sending the token in case of\n     *                  unsuccessful swap\n     * @param _token Token address\n     * @param _amount   Swap amount\n     * @param _timeLock UNIX epoch seconds time that the lock expires at.\n     *                  Refunds can be made after this time.\n     * @param _hashedSecret A uint(sha256(secret)) hashedSecret.\n     */\n    constructor(\n        address _target,\n        address _backup,\n        address _platform,\n        address _token,\n        uint _feeAmount,\n        uint _amount,\n        uint _timeLock,\n        uint _hashedSecret\n    )\n    public\n    futureTimeLock(_timeLock)\n    {\n        target = _target;\n        backup = _backup;\n        token = _token;\n        platform = _platform;\n\n        feeAmount = _feeAmount;\n        amount = _amount;\n        timeLock = _timeLock;\n        hashedSecret = _hashedSecret;\n    }\n\n    /**\n     * @dev Called by the receiver once they know the rawSecret of the hashedSecret.\n     * This will transfer the locked funds to their address.\n     *\n     * @param _rawSecret uint(sha256(_rawSecret)) should equal the contract hashedSecret.\n     * @return bool true on success\n     */\n    function withdraw(uint[2] memory _rawSecret)\n    public\n    fundsSent\n    secretHashMatches(_rawSecret)\n    withdrawable\n    returns (bool)\n    {\n        rawSecret = _rawSecret;\n        withdrawn = true;\n\n        // Calculate the platform fee before the withdraw\n        uint platformFee = contractBalance() - amount + feeAmount;\n\n        IERC20(token).transfer(target, amount - feeAmount);\n\n        if (platformFee > 0) {\n            IERC20(token).transfer(platform, platformFee);\n        }\n\n        return true;\n    }\n\n    /**\n     * @dev Called by the sender if there was no withdraw AND the time lock has\n     * expired. This will refund the contract amount.\n     *\n     * @return bool true on success\n     */\n    function refund()\n    external\n    fundsSent\n    refundable\n    returns (bool)\n    {\n        refunded = true;\n\n        IERC20(token).transfer(backup, contractBalance());\n\n        return true;\n    }\n}\n",
  "sourcePath": "/home/pavlovdog/Work/TonAtomicSwapProposal/src/ethereum-contracts/contracts/AtomicSwapERC20.sol",
  "compiler": {
    "name": "solc",
    "version": "0.5.16+commit.9c3226ce.Emscripten.clang"
  },
  "schemaVersion": "3.2.5",
  "updatedAt": "2020-09-17T22:25:51.500Z",
  "devdoc": {
    "methods": {
      "constructor": {
        "details": "Factory sets up a new hash time lock contract and providing the receiver lock terms.",
        "params": {
          "_amount": "Swap amount",
          "_backup": "Backup address for sending the token in case of                 unsuccessful swap",
          "_hashedSecret": "A uint(sha256(secret)) hashedSecret.",
          "_target": "Receiver of the token in case of successful swap.",
          "_timeLock": "UNIX epoch seconds time that the lock expires at.                 Refunds can be made after this time.",
          "_token": "Token address"
        }
      },
      "refund()": {
        "details": "Called by the sender if there was no withdraw AND the time lock has expired. This will refund the contract amount.",
        "return": "bool true on success"
      },
      "withdraw(uint256[2])": {
        "details": "Called by the receiver once they know the rawSecret of the hashedSecret. This will transfer the locked funds to their address.",
        "params": {
          "_rawSecret": "uint(sha256(_rawSecret)) should equal the contract hashedSecret."
        },
        "return": "bool true on success"
      }
    },
    "title": "Hashed Timelock Contracts for using with ERC20."
  },
  "userdoc": {
    "methods": {}
  }
}